:1000000012C024C023C022C021C020C01FC01EC0F7
:100010001DC01CC01BC01AC019C018C017C016C014
:1000200015C014C013C011241FBECFE5D4E0DEBF3D
:10003000CDBF10E0A0E6B0E0E0E7F2E002C005903E
:100040000D92A63AB107D9F714D010C1D9CFE82F35
:10005000F0E083E0EE0FFF1F8A95E1F7E60FF11D58
:10006000E05AFF4F808185BB84ED90E30197F1F763
:100070000895CF92DF92EF92FF920F931F93CF9349
:10008000DF938FEF84BB87BB889A14E044E0EE24B3
:10009000E394FF24FA9403E0C4EDD0E35FEF39E189
:1000A000C32ED12C64EC79E0E12FF0E023E0EE0FD9
:1000B000FF1F2A95E1F7E40FF11DE05AFF4F808101
:1000C00085BBCE010197F1F752BBC6010197F1F74D
:1000D00012BAE02FF0E0E056FF4F808188BB1E0D82
:1000E0004F0DA12FB0E0242F30E0FD0193E0EE0F83
:1000F000FF1F9A95E1F7E20FF31FE05AFF4F80814F
:1001000085BBCE010197F1F7173009F09DC08081C2
:10011000893351F488B3803E11F0803729F452BB03
:10012000CB010197F1F712BAFD0183E0EE0FFF1F3B
:100130008A95E1F7E20FF31FE05AFF4F80818A337F
:1001400061F488B3803E21F0803711F0883329F4C0
:1001500052BBCB010197F1F712BAFD0193E0EE0F0C
:10016000FF1F9A95E1F7E20FF31FE05AFF4F8081DE
:100170008B3361F488B38C3121F0803711F08833F0
:1001800029F452BBCB010197F1F712BAFD0183E0CC
:10019000EE0FFF1F8A95E1F7E20FF31FE05AFF4FC2
:1001A00080818C3361F488B38C3121F08E3011F072
:1001B000883329F452BBCB010197F1F712BAFD0144
:1001C00093E0EE0FFF1F9A95E1F7E20FF31FE05A5D
:1001D000FF4F80818D3361F488B38C3121F08E30F4
:1001E00011F0873029F452BBCB010197F1F712BA15
:1001F000FD0183E0EE0FFF1F8A95E1F7E20FF31F89
:10020000E05AFF4F80818E3351F488B38E3011F065
:10021000873029F452BBCB010197F1F712BA93E072
:10022000AA0FBB1F9A95E1F7A20FB31FA05ABF4FA9
:100230008C918F3359F488B3873041F452BBCB0192
:100240000197F1F712BA02C0112309F4E194442393
:1002500019F4F19441E004C0473011F4F19446E000
:100260000F5F063008F420CF00E01ECFF894FFCFD8
:10027000000102030405060708090A0B0C0D0E0F06
:10028000101112131415161718191A1B1C1D1E1FF6
:10029000202122232425262728292A2B2C2D2E2FE6
:1002A000303132333435363738393A3B3C3D3E3FD6
:0602B000E070381C0E078F
:00000001FF
