:1000000012C024C023C022C021C020C01FC01EC0F7
:100010001DC01CC01BC01AC019C018C017C016C014
:1000200015C014C013C011241FBECFE5D4E0DEBF3D
:10003000CDBF10E0A0E6B0E0E8E2F4E002C0059039
:100040000D92A63AB107D9F740D0ECC1D9CFE82F2D
:10005000F0E083E0EE0FFF1F8A95E1F7E60FF11D58
:10006000E05AFF4F808185BB88EA91E60197F1F75E
:1000700008958FEF81BB12BAE8EAF1E63197F1F704
:1000800082BB11BA40E050E0A2EEB4E014C0FB0124
:10009000E20FF31FE05AFF4F808185BBCD0101972E
:1000A000F1F72F5F3F4F2830310589F74F5F5F4FE2
:1000B0004830510549F020E030E0BA0193E0660F86
:1000C000771F9A95E1F7E3CF0895AF92BF92CF9251
:1000D000DF92EF92FF920F931F93DF93CF930F92D4
:1000E000CDB7DEB78FEF84BB11BA82BBDD24D394CA
:1000F00066E0E62E57E0F52E08E019E0BEE0AFE03E
:10010000FBE1ECE173E264E251E346E33AE32BE323
:100110009CE38DE315BAD5BAE5BAF5BA05BB15BBB4
:10012000B5BBA5BBF5BBE5BB75BB65BB55BB45BB4F
:1001300035BB25BB95BB85BB8099ECCF809BFECFA3
:10014000DD24DA9442E0C42E08EA11E63AEFE32E09
:10015000F12CBB24B39424E0A22ED7BAC982D8BA1A
:10016000C8010197F1F78091A20088BB80918700B8
:1001700085BBC8010197F1F7C8010197F1F774E059
:1001800057E041E06FEFE72FF0E093E0EE0FFF1F45
:100190009A95E1F7E50FF11DE05AFF4F808185BB8D
:1001A000C8010197F1F7740F560FA72FB0E0252F64
:1001B00030E0FD0183E0EE0FFF1F8A95E1F7E20FCB
:1001C000F31FE05AFF4F808185BBC8010197F1F70B
:1001D000773009F08FC08081883321F488B3803E66
:1001E00009F0E9C0FD0193E0EE0FFF1F9A95E1F7DA
:1001F000E20FF31FE05AFF4F8081893331F488B357
:10020000803E19F0803709F0D6C0FD0183E0EE0F83
:10021000FF1F8A95E1F7E20FF31FE05AFF4F80813D
:100220008A3341F488B3803E29F0803719F088334F
:1002300009F0C1C0FD0193E0EE0FFF1F9A95E1F7B1
:10024000E20FF31FE05AFF4F80818B3341F488B3F4
:100250008C3129F0803719F0883309F0ACC0FD01EA
:1002600083E0EE0FFF1F8A95E1F7E20FF31FE05ADC
:10027000FF4F80818C3341F488B38C3129F08E306C
:1002800019F0883309F097C0FD0193E0EE0FFF1FCE
:100290009A95E1F7E20FF31FE05AFF4F80818D330B
:1002A00041F488B38C3129F08E3019F0873009F091
:1002B00082C0FD0183E0EE0FFF1F8A95E1F7E20F98
:1002C000F31FE05AFF4F80818E3331F488B38E30B4
:1002D00019F0873009F06FC0E3E0AA0FBB1FEA9561
:1002E000E1F7A20FB31FA05ABF4F8C918F3309F0D3
:1002F00065C05EC0772309F062C0F901E05AFF4F84
:100300008081882321F488B3803E09F054C0F9012C
:10031000E05AFF4F8081813031F488B3803E19F07C
:10032000803709F048C0F901E05AFF4F80818230E0
:1003300039F488B3803E21F0803711F08833D9F545
:10034000F901E05AFF4F8081833039F488B38C3152
:1003500021F0803711F0883371F5F901E05AFF4F31
:100360008081843039F488B38C3121F08E3011F0E3
:10037000883309F5F901E05AFF4F8081853039F45F
:1003800088B38C3121F08E3011F08730A1F4F9015F
:10039000E05AFF4F8081863029F488B38E3011F007
:1003A000873049F4205A3F4FF9018081873031F47A
:1003B00088B3873019F0842F5CDECFCE419555236A
:1003C00019F4619551E004C0573011F4619556E07D
:1003D000809912C0C7010197F1F780990DC08981FA
:1003E0008F5F8983E981F0E0E056FF4F808188BB11
:1003F0008981853008F0A9828199C5CEC70101970E
:10040000F1F78199C0CE898181508983E981F0E03B
:10041000E056FF4F808188BB8981882309F0B3CEE5
:08042000B982B1CEF894FFCFC0
:10042800000102030405060708090A0B0C0D0E0F4C
:10043800101112131415161718191A1B1C1D1E1F3C
:10044800202122232425262728292A2B2C2D2E2F2C
:10045800303132333435363738393A3B3C3D3E3F1C
:06046800E070381C0E07D5
:00000001FF
