:100000000C942A000C9445000C9445000C94450077
:100010000C9445000C9445000C9445000C9445004C
:100020000C9445000C9445000C9445000C9445003C
:100030000C9445000C9445000C9445000C9445002C
:100040000C9445000C9445000C9445000C9445001C
:100050000C94450011241FBECFE5D4E0DEBFCDBF18
:1000600010E0A0E6B0E0E8E1F1E002C005900D92FA
:10007000A836B107D9F710E0A8E6B0E001C01D929C
:10008000A836B107E1F70C9447000C940000CEE5C8
:10009000D4E0DEBFCDBF83E089838CEF81BB2FEF3F
:1000A0002ABB2BBB80E090E00197F1F71BBA22BB83
:1000B000809163008BBB75E028EA31E640E050E0B8
:1000C00061E0809913C0809BFECF89818F5F898317
:1000D0008981E82FFF27E05AFF4F80818BBB898100
:1000E000863009F47983C9010197F1F78199E9CF45
:1000F000819BFECF8981815089838981E82FFF27E9
:10010000E05AFF4F80818BBB8981882309F4698382
:08011000C9010197F1F7D5CFF9
:08011800C06030180C06030062
:00000001FF
