:1000000012C02CC02BC02AC029C028C027C026C0BF
:1000100025C024C023C022C021C020C01FC01EC0D4
:100020001DC01CC01BC011241FBECFE5D4E0DEBF25
:10003000CDBF11E0A0E6B0E0E8E3F2E102C0059038
:100040000D92AE3AB107D9F711E0AEEAB1E001C0C6
:100050001D92A13BB107E1F7C8D0ECC8D1CF8823EE
:1000600011F48AEF23C0813011F481EE1FC0823079
:1000700011F488EC1BC0833011F48FEA17C0843070
:1000800011F486E913C0853011F48DE70FC0863076
:1000900011F484E60BC0873011F48BE407C088307C
:1000A00011F48CE303C0893019F488E28093B00125
:1000B0008091B0010895AF92BF92CF92DF92EF92FC
:1000C000FF920F931F93E82FF0E083E0EE0FFF1FE6
:1000D0008A95E1F7E60FF11DE05AFF4F808185BB5D
:1000E0008091AF01BCDF90E0A0E0B0E0BC01CD01A9
:1000F00000D65B016C0120E030E04AE753E432D4E3
:100100007B018C0120E030E040E85FE376D5882376
:100110001CF461E070E020C0C801B70120E03FEFAF
:100120004FE757E414D51816A4F4C601B50120E032
:1001300030E040E251E416D451D289E190E005C0AC
:10014000FC013197F1F76150704061157105C1F7FD
:1001500006C0C801B70142D2CB010197F1F71F9148
:100160000F91FF90EF90DF90CF90BF90AF900895E8
:100170008FEF81BB12BAE8EAF1E63197F1F782BB63
:1001800011BA40E050E0A2EEB4E014C0FB01E20F6F
:10019000F31FE05AFF4F808185BBCD010197F1F736
:1001A0002F5F3F4F2830310589F74F5F5F4F483051
:1001B000510549F020E030E0BA0193E0660F771F67
:1001C0009A95E1F7E3CF089589B990BD86E880BD9F
:1001D00088E18AB908958CB108955D9BFECF8CB9F2
:1001E00008955D9BFECF8CB908953F924F925F9228
:1001F0006F927F928F929F92AF92BF92CF92DF9237
:10020000EF92FF920F931F93DF93CF930F92CDB78F
:10021000DEB79FEF94BB82E089B910BC86E880BD51
:1002200088E18AB911BA92BBCC24C39486E0D82E57
:1002300007E0E02E18E0F12E09E01EE0BFE0ABE1A0
:10024000FCE1E3E274E261E356E34AE33BE32CE3DF
:100250009DE315BAC5BAD5BAE5BAF5BA05BB15BB63
:10026000B5BBA5BBF5BBE5BB75BB65BB55BB45BB0E
:1002700035BB25BB95BB8CB1813659F799249A942F
:10028000B2E03B2EA8EAAA2EA1E6BA2EF7E58F2E01
:10029000E3E77E2E7CE6672E6AEFC62ED12C55242E
:1002A000539454E0452E97BA398298BAC501019704
:1002B000F1F78091A20088BB84E067E0FCDEC50115
:1002C0000197F1F744E0E42E37E0F32E11E00FEF51
:1002D0008E2D6F2DF0DEE10EF00E8E2D6F2DEBDEEC
:1002E00087E0E81609F087C0AF2DB0E0FD01E05AC5
:1002F000FF4F80AD883349F488B3803E09F008C1D0
:100300008091AE018F5F8093AE01FD01E05AFF4FF7
:1003100080AD893359F488B3803E19F0803709F0F5
:10032000F7C08091AE018F5F8093AE01FD01E05A6E
:10033000FF4F80AD8A3369F488B3803E29F080375F
:1003400019F0883309F0E4C08091AE018F5F80938B
:10035000AE01FD01E05AFF4F80AD8B3369F488B3E5
:100360008C3129F0803719F0883309F0D1C08091A1
:10037000AE018F5F8093AE01FD01E05AFF4F80AD6B
:100380008C3369F488B38C3129F08E3019F08833BE
:1003900009F0BEC08091AE018F5F8093AE01FD0178
:1003A000E05AFF4F80AD8D3369F488B38C3129F06A
:1003B0008E3019F0873009F0ABC08091AE018F5FAD
:1003C0008093AE01FD01E05AFF4F80AD8E3359F4AA
:1003D00088B38E3019F0873009F09AC08091AE0151
:1003E0008F5F8093AE01A05ABF4FD8968C918F3308
:1003F00009F097C084C0EE2009F094C0AF2DB0E0A2
:10040000FD01E05AFF4F8081882349F488B3803E84
:1004100009F07EC08091AE018F5F8093AE01FD0137
:10042000E05AFF4F8081813059F488B3803E19F043
:10043000803709F06DC08091AE018F5F8093AE016F
:10044000FD01E05AFF4F8081823069F488B3803E1D
:1004500029F0803719F0883309F05AC08091AE0135
:100460008F5F8093AE01FD01E05AFF4F80818330A2
:1004700069F488B38C3129F0803719F0883309F09A
:1004800047C08091AE018F5F8093AE01FD01E05ABD
:10049000FF4F8081843061F488B38C3121F08E303D
:1004A00011F08833A9F58091AE018F5F8093AE0182
:1004B000FD01E05AFF4F8081853061F488B38C31B3
:1004C00021F08E3011F0873019F58091AE018F5FE9
:1004D0008093AE01FD01E05AFF4F8081863051F4D8
:1004E00088B38E3011F0873099F48091AE018F5F20
:1004F0008093AE01A05ABF4F8C91873091F488B39E
:10050000873031F48091AE018F5F8093AE0109C0D6
:100510008091AE0181508093AE01812F602F28DE43
:10052000C2CE1195FF2021F40195FF24F39406C05B
:1005300087E0F81619F4019526E0F22E8091AE01BD
:10054000893039F48091AF01823019F45D9BFECF80
:100550008CB88091AE01893039F48091AF018F5F02
:100560008093AF011092AE015D9BFECF7CB880916D
:10057000AE015D9BFECF8CB95D9BFECF6CB88091C8
:10058000AF015D9BFECF8CB9839912C0C601019764
:10059000F1F783990DC089818F5F8983E981F0E04C
:1005A000E056FF4F808188BB8981853008F0498201
:1005B00084998ECEC6010197F1F7849989CE8981FD
:1005C00081508983E981F0E0E056FF4F808188BB4C
:1005D0008981882309F07CCE59827ACEEF92FF92EE
:1005E0000F931F937B018C0120E030E040E05FE43B
:1005F000D9D288237CF0C801B70120E030E040E088
:100600005FE45ED125D39B01AC01205030404040D7
:10061000504805C0C801B7011BD39B01AC01B9010B
:10062000CA011F910F91FF90EF900895A0E0B0E0F4
:10063000EBE1F3E0C8C5DC012B01FA019C9192309B
:1006400008F439C1EB018881823008F433C1943059
:1006500069F4843009F02FC111969C91119789811A
:10066000981709F428C1A6EAB0E025C1843009F43E
:1006700021C18230A9F4923009F01DC19A01AD0167
:1006800088E0EA010990AE01E90109929E018150DA
:10069000C1F7E201898111969C918923818308C168
:1006A000923009F407C112962D903C901397EB01FC
:1006B0008A819B811496AD90BD90CD90DC90179768
:1006C000EC80FD800E811F819101281B390BB9013F
:1006D00037FF04C066277727621B730B60327105F2
:1006E0000CF061C0121613066CF537014801062E96
:1006F00004C096948794779467940A94D2F721E083
:1007000030E040E050E004C0220F331F441F551F6B
:100710006A95D2F721503040404050402E213F2171
:1007200040235123211531054105510521F021E0D8
:1007300030E040E050E079018A01E628F7280829F6
:1007400019293CC0232BD1F1260E371E3501460155
:10075000062E04C096948794779467940A94D2F7EF
:1007600021E030E040E050E004C0220F331F441F7E
:10077000551F6A95D2F721503040404050402A2101
:100780003B214C215D21211531054105510521F009
:1007900021E030E040E050E059016A01A628B72886
:1007A000C828D9280BC0821593052CF01C01AA2457
:1007B000BB24650103C0EE24FF24870111969C91A0
:1007C000D20111968C91981709F445C0992339F0FC
:1007D000A80197012A193B094C095D0906C0A60129
:1007E00095012E193F09400B510B57FD08C011828E
:1007F0003382228224833583468357831DC081E060
:1008000081833382228288279927DC01821B930B04
:10081000A40BB50B84839583A683B7830DC0220FE9
:10082000331F441F551F248335834683578382819A
:1008300093810197938382832481358146815781F7
:10084000DA01C9010197A109B1098F5F9F4FAF4F2D
:10085000BF4328F30BC0918333822282EA0CFB1C36
:100860000C1D1D1DE482F5820683178383E08083BF
:10087000248135814681578157FF1AC0C901AA27B3
:1008800097FDA095BA2F81709070A070B0705695AA
:10089000479537952795822B932BA42BB52B8483D3
:1008A0009583A683B7838281938101969383828304
:1008B000DF0101C0D201CD01CDB7DEB7E2E19FC4B7
:1008C000A0E2B0E0E5E6F4E08AC469837A838B8332
:1008D0009C832D833E834F835887E9E0EE2EF12CD5
:1008E000EC0EFD1ECE010196B7019CD38E010F5E6A
:1008F0001F4FCE010596B80195D38A8991E08927CB
:100900008A8BC701B801AE01475E5F4F8FDEB5D25B
:10091000A096E6E080C4A0E2B0E0E0E9F4E05FC4C5
:1009200069837A838B839C832D833E834F8358878F
:10093000F9E0EF2EF12CEC0EFD1ECE010196B70171
:1009400071D38E010F5E1F4FCE010596B8016AD399
:10095000C701B801AE01475E5F4F68DE8ED2A09638
:10096000E6E059C4A0E2B0E0E7EBF4E02CC4698310
:100970007A838B839C832D833E834F835887CE015C
:100980000196BE01675F7F4F4DD3CE010596BE0134
:100990006F5E7F4F47D39985923088F08989823086
:1009A000C8F0943019F4823051F404C0843029F432
:1009B000923081F486EA90E0C6C0923049F420E09B
:1009C0009A858A89981321E02A87CE010996BBC0AF
:1009D000823049F420E09A858A89981321E02A8B95
:1009E000CE014196B0C02D843E844F8458886D88D6
:1009F0007E888F88988CEE24FF248701AA24BB244C
:100A0000650140E050E060E070E0E0E0F0E0C1014E
:100A100081709070892BE9F0E60CF71C081D191DF8
:100A20009A01AB012A0D3B1D4C1D5D1D80E090E03D
:100A3000A0E0B0E0E614F7040805190520F481E011
:100A400090E0A0E0B0E0BA01A901480F591F6A1F69
:100A50007B1FAA0CBB1CCC1CDD1C97FE08C081E0D0
:100A600090E0A0E0B0E0A82AB92ACA2ADB2A319691
:100A7000E032F10549F0660C771C881C991C5694ED
:100A8000479437942794C3CFFA85EA892B893C8908
:100A90008B859C85280F391F2E5F3F4F17C0CA01D9
:100AA00081709070892B61F016950795F794E79403
:100AB00080E090E0A0E0B0E8E82AF92A0A2B1B2B9E
:100AC00076956795579547952F5F3F4F77FDE7CF11
:100AD0000CC0440F551F661F771F17FD4160EE0CB9
:100AE000FF1C001F111F21503040403090E059077B
:100AF00090E0690790E4790760F32B8F3C8FDB016E
:100B0000CA018F779070A070B07080349105A105F4
:100B1000B10561F447FD0AC0E114F10401051105B6
:100B200029F0405C5F4F6F4F7F4F40781A8EFE1761
:100B300011F081E08A8F4D8F5E8F6F8F78A383E0F5
:100B4000898FCE01499699D1A096E2E158C3A8E1D8
:100B5000B0E0ECEAF5E043C369837A838B839C833E
:100B60002D833E834F83588789E0E82EF12CEC0ECD
:100B7000FD1ECE010196B70155D28E010F5E1F4FAB
:100B8000CE010596B8014ED28985823038F0898928
:100B9000823020F0C701B801BDD201C08FEF689646
:100BA000E6E039C3A8E1B0E0E7EDF5E018C36983FA
:100BB0007A838B839C832D833E834F83588789E080
:100BC000E82EF12CEC0EFD1ECE010196B7012AD2C3
:100BD0008E010F5E1F4FCE010596B80123D2898585
:100BE000823038F08989823020F0C701B80192D272
:100BF00001C08FEF6896E6E00EC3A8E1B0E0E2E046
:100C0000F6E0EDC269837A838B839C832D833E83D8
:100C10004F83588789E0E82EF12CEC0EFD1ECE01A3
:100C20000196B701FFD18E010F5E1F4FCE010596D1
:100C3000B801F8D18985823038F08989823020F076
:100C4000C701B80167D201C081E06896E6E0E3C25F
:100C5000ACE0B0E0EDE2F6E0C6C269837A838B8354
:100C60009C83CE010196BE016B5F7F4FDBD18D81EE
:100C7000823061F1823050F1843021F48E818823FA
:100C800051F12EC02F81388537FD20C06E812F3164
:100C900031051CF06623F9F023C08EE190E0821B41
:100CA000930B29853A854B855C8504C056954795FD
:100CB000379527958A95D2F76623B1F050954095E0
:100CC000309521953F4F4F4F5F4F0EC020E030E0F1
:100CD00040E050E009C02FEF3FEF4FEF5FE704C067
:100CE00020E030E040E050E8B901CA012C96E2E093
:100CF00096C2A8E0B0E0EEE7F6E06DC27B018C01A1
:100D0000611571058105910519F482E089835FC041
:100D100083E089838EE1C82ED12CDC82CB82ED82E8
:100D2000FE820F831887C801B70158D0FC013197A4
:100D3000F7FF3BC0222733272E1B3F0B57016801CB
:100D4000022E04C0D694C794B794A7940A94D2F7FD
:100D500040E050E060E070E081E090E0A0E0B0E0D2
:100D600004C0880F991FAA1FBB1F2A95D2F70197AD
:100D7000A109B1098E219F21A023B1230097A105CC
:100D8000B10521F041E050E060E070E04A295B29C4
:100D90006C297D294D835E836F8378878EE190E097
:100DA0008E1B9F0B9C838B8312C0309781F00E2E7D
:100DB00004C0EE0CFF1C001F111F0A94D2F7ED8235
:100DC000FE820F831887CE1ADF0ADC82CB821A825A
:100DD000CE01019652D02896EAE019C2EF92FF9216
:100DE0000F931F937B018C0180E0E81680E0F806EA
:100DF00081E0080780E0180788F48FEFE816F10417
:100E00000105110531F028F088E090E0A0E0B0E0A5
:100E100017C080E090E0A0E0B0E012C080E0E816EB
:100E200080E0F80680E0080781E0180728F088E1F4
:100E300090E0A0E0B0E004C080E190E0A0E0B0E08D
:100E400020E230E040E050E0281B390B4A0B5B0BFE
:100E500004C016950795F794E7948A95D2F7F701A1
:100E6000E255FF4F8081281B310941095109C90111
:100E70001F910F91FF90EF900895DF92EF92FF92F4
:100E80000F931F93FC01E480F58006811781D180C8
:100E90008081823048F480E090E0A0E1B0E0E82A70
:100EA000F92A0A2B1B2BA5C0843009F49FC082307D
:100EB00021F4EE24FF24870105C0E114F1040105AB
:100EC000110519F4E0E0F0E096C0628173819FEFB4
:100ED000623879070CF05BC022E83FEF261B370B26
:100EE0002A3131052CF020E030E040E050E02AC00B
:100EF000B801A701022E04C07695679557954795CE
:100F00000A94D2F781E090E0A0E0B0E004C0880F3E
:100F1000991FAA1FBB1F2A95D2F70197A109B109F2
:100F20008E219F21A023B1230097A105B10521F0B7
:100F300081E090E0A0E0B0E09A01AB01282B392BD2
:100F40004A2B5B2BDA01C9018F779070A070B070CB
:100F500080349105A105B10539F427FF09C0205C53
:100F60003F4F4F4F5F4F04C0215C3F4F4F4F5F4F8C
:100F7000E0E0F0E02030A0E03A07A0E04A07A0E47B
:100F80005A0710F0E1E0F0E079018A0127C06038EB
:100F9000710564F5FB01E158FF4FD801C7018F7758
:100FA0009070A070B07080349105A105B10539F43E
:100FB000E7FE0DC080E490E0A0E0B0E004C08FE365
:100FC00090E0A0E0B0E0E80EF91E0A1F1B1F17FF1B
:100FD00005C016950795F794E794319687E0169526
:100FE0000795F794E7948A95D1F705C0EE24FF247E
:100FF0008701EFEFF0E06E2F679566276795902FDA
:101000009F77D794DD24D7948E2F8695492F462B32
:10101000582F5D29B701CA011F910F91FF90EF90E2
:10102000DF900895FC01DB01408151812281622F14
:101030006F7770E0221F2227221F9381892F880F4C
:10104000822B282F30E0991F9927991F11969C9386
:10105000119721153105A9F5411551056105710556
:1010600011F482E037C082E89FEF13969C938E9331
:1010700012979A01AB0167E0220F331F441F551FDF
:101080006A95D1F783E08C930DC0220F331F441F64
:10109000551F12968D919C911397019713969C93CF
:1010A0008E931297203080E0380780E0480780E474
:1010B000580758F314962D933D934D935C931797CF
:1010C00008952F3F310579F44115510561057105EA
:1010D00019F484E08C93089564FF03C081E08C933D
:1010E00012C01C9210C02F57304013963C932E9381
:1010F000129783E08C9387E0440F551F661F771F7C
:101100008A95D1F7706414964D935D936D937C939B
:10111000179708951F93DC01FB019C91923008F40E
:1011200047C08081823008F443C0943051F4119656
:101130001C91843099F58181682F70E0611B7109E1
:101140003FC0843021F0923031F48230B9F1818196
:10115000882389F12DC011961C9111978230F1F0EE
:1011600081811817D9F412962D913C9113978281A1
:1011700093818217930794F028173907BCF01496CF
:101180008D919D910D90BC91A02D2481358146813A
:101190005781281739074A075B0718F4112341F0D4
:1011A0000AC082179307A407B50740F4112319F06A
:1011B00061E070E005C06FEF7FEF02C060E070E0BB
:1011C000CB011F9108952F923F924F925F926F92A1
:1011D0007F928F929F92AF92BF92CF92DF92EF92C7
:1011E000FF920F931F93CF93DF93CDB7DEB7CA1B48
:1011F000DB0B0FB6F894DEBF0FBECDBF09942A8873
:10120000398848885F846E847D848C849B84AA841A
:10121000B984C884DF80EE80FD800C811B81AA81A7
:10122000B981CE0FD11D0FB6F894DEBF0FBECDBF72
:08123000ED010895F894FFCFD1
:10123800000102030405060708090A0B0C0D0E0F2E
:10124800101112131415161718191A1B1C1D1E1F1E
:10125800202122232425262728292A2B2C2D2E2F0E
:10126800303132333435363738393A3B3C3D3E3FFE
:10127800E070381C0E0700000000000000000001AC
:10128800020203030303040404040404040405051C
:1012980005050505050505050505050505050606F4
:1012A80006060606060606060606060606060606D6
:1012B80006060606060606060606060606060707C4
:1012C80007070707070707070707070707070707A6
:1012D8000707070707070707070707070707070796
:1012E8000707070707070707070707070707070786
:1012F8000707070707070707070707070707080874
:101308000808080808080808080808080808080855
:101318000808080808080808080808080808080845
:101328000808080808080808080808080808080835
:101338000808080808080808080808080808080825
:101348000808080808080808080808080808080815
:101358000808080808080808080808080808080805
:1013680008080808080808080808080808080808F5
:0E1378000808080808080808080808080808F7
:00000001FF
