:1000000012C024C023C022C021C020C01FC01EC0F7
:100010001DC01CC01BC01AC019C018C017C016C014
:1000200015C014C013C011241FBECFE5D4E0DEBF3D
:10003000CDBF10E0A0E6B0E0E0ECF0E002C005903B
:100040000D92A03AB107D9F716D038C0D9CF9FEF9B
:1000500094BBE82FF0E083E0EE0FFF1F8A95E1F7F5
:10006000E60FF11DE05AFF4F808185BB8CE594E4DB
:100070000197F1F7089560E0ACE5B4E47FEF14C0B8
:1000800074BBFA01E20FF31FE05AFF4F808185BB7A
:10009000CD010197F1F72F5F3F4F2930310581F7EF
:1000A0006F5F693008F060E020E030E0462F50E0FC
:1000B00093E0440F551F9A95E1F7E2CFF894FFCFF4
:1000C000000102030405060708090A0B0C0D0E0FB8
:1000D000101112131415161718191A1B1C1D1E1FA8
:1000E000202122232425262728292A2B2C2D2E2F98
:1000F000303132333435363738393A3B3C3D3E3F88
:00000001FF
