:1000000012C02CC02BC02AC029C028C027C026C0BF
:1000100025C024C023C022C021C020C01FC01EC0D4
:100020001DC01CC01BC011241FBECFE5D4E0DEBF25
:10003000CDBF10E0A0E6B0E0E2E0F5E002C0059040
:100040000D92A23FB107D9F710E0A2EFB0E001C0D6
:100050001D92A83FB107E1F715D051C2D1CF89B9A0
:1000600090BD86E880BD88E18AB908955F9BFECF88
:100070008CB108955D9BFECF8CB908955F9BFECF38
:100080008CB10895CF93DF9382E089B910BC86E8E4
:1000900080BD88E18AB980E067D181E060E03DD130
:1000A00082E060E0F1D180E690E086D18AE060E015
:1000B000EBD188E690E080D180E29EE429E130E057
:1000C000F9013197F1F70197D9F781E060E025D187
:1000D00082E060E0D9D18BE690E06ED184E062E00E
:1000E000D3D187E790E068D180E395E729E130E05C
:1000F000F9013197F1F70197D9F781E060E00DD16F
:1001000084E060E0C1D18FE790E056D11092F20018
:10011000C4EDD0E328C08DE061E0B6D18091F2005B
:1001200090E062E070E055D18FE061E0ADD188E809
:1001300090E042D1CE010197F1F78091F2006AE0A0
:10014000ABD1992359F48091F3008F5F8093F30032
:10015000815061E099D18AE890E02ED18091F2003F
:100160008F5F8093F2008091F2008536A0F281E0EB
:1001700060E0D3D080E197E229E130E0F9013197E6
:10018000F1F70197D9F783E060E07ED18CE890E049
:1001900013D188E061E078D181E990E00DD180E170
:1001A00097E229E130E0F9013197F1F70197D9F7AA
:1001B0005D9BFECF81E68CB988EA91E60197F1F765
:1001C00081E060E0AAD05F9BFECF9CB19093F700E6
:1001D000933731F45F9BFECF8CB18093F40028C03D
:1001E0009C3631F45F9BFECF8CB18093F5003DC00F
:1001F000973631F45F9BFECF8CB18093DD0035C024
:100200009737B1F45F9BFECF8CB18093F6008330BB
:1002100061F581E060E081D080E060E035D186E981
:1002200090E0CAD080E061E02FD185EA90E017C06D
:100230009F36D9F45F9BFECF8CB18093F60084305B
:10024000A1F481E060E069D084E060E01DD184EB3E
:1002500090E0B2D082E061E017D18EEB90E0ACD0BC
:1002600080E090E0DF91CF91089581E060E055D08B
:1002700089EC90E0A1D084E061E006D180ED90E0CF
:100280009BD089E060E000D187ED90E095D086E0DA
:1002900060E0FAD08091F40090E061E070E099D0E5
:1002A0008AE061E0F1D08091F50090E061E070E0DB
:1002B00090D08FE060E0E8D08091DD0090E061E0D8
:1002C00070E087D080CF84B3807F84BB969A959866
:1002D00081E08A95F1F721E0979A822F8A95F1F7CC
:1002E00083B38295807F922F9A95F1F79798922FFA
:1002F0009A95F1F7979A922F9A95F1F793B3922FD7
:100300009A95F1F79798922F9A95F1F787FDE4CF98
:10031000969884B38F6084BB0895382F662311F4B8
:10032000959801C0959A21E0822F8A95F1F7979AC6
:1003300085B3932F92959F70807F982B95BB822FCA
:100340008A95F1F79798822F8A95F1F7979A85B356
:100350003F70807F832B85BB822F8A95F1F797981A
:100360002A95F1F7B0DF08951F93182F8CE49DE1D3
:100370000197F1F784B38F6084BB8F9A8D9A8E9A20
:1003800085B3807F85BB97989698959881E0982F44
:100390009A95F1F7979AA99A982F9A95F1F79798C5
:1003A0008A95F1F790DF812F8C6060E0B6DF88E2FC
:1003B00060E0B3DF1F910895CF93DF93EC0103C09A
:1003C00061E0ABDF219688818823D1F7DF91CF915F
:1003D0000895EF92FF920F931F93DF93CF9300D076
:1003E00000D00F92CDB7DEB79C018B01FE01319694
:1003F00085E0DF011D928A95E9F7FE0135960BC075
:10040000C9016AE070E054D08083C9016AE070E0FD
:100410004FD09B0131972115310591F7BFEF0F3F69
:100420001B0779F420E030E0AE014F5F5F4F02C060
:100430002F5F3F4FFA01E20FF31F80818823C1F342
:1004400004C025E030E0201B310B7E010894E11C44
:10045000F11CE20EF31E890108C0F70181917F01B2
:10046000805D61E05ADF0F5F1F4F05301105ACF36F
:100470000F900F900F900F900F90CF91DF911F91E1
:100480000F91FF90EF900895883228F461118064F5
:10049000806860E042DF0895991B79E004C0991FED
:1004A000961708F0961B881F7A95C9F780950895CE
:1004B00097FB092E07260AD077FD04D00CD006D072
:1004C00000201AF4709561957F4F0895F6F7909586
:1004D00081959F4F0895AA1BBB1B51E107C0AA1F1E
:1004E000BB1FA617B70710F0A61BB70B881F991FD5
:1004F0005A95A9F780959095BC01CD010895F8947F
:02050000FFCF2B
:1005020057656C636F6D6500546F00506F6E6720A6
:1005120047616D696E6700436F6E736F6C65004C67
:100522006F6164696E67200025007C004C657473FE
:1005320000506C6179002A2A2A594F5520205749C8
:100542004E2A2A2A00436F6E67726174732E2E2020
:100552003A2D2900594F5520204C4F534500464F04
:100562004F4C2E2E203A2D280053434F52453A002D
:100572004C4556454C3A00504F4E473A000A20210E
:1005820022232425262728291011121314151617A1
:02059200181936
:00000001FF
