:1000000012C024C023C022C021C020C01FC01EC0F7
:100010001DC01CC01BC01AC019C018C017C016C014
:1000200015C014C013C011241FBECFE5D4E0DEBF3D
:10003000CDBF10E0A0E6B0E0E2EDF3E002C0059035
:100040000D92A63AB107D9F740D0C1C1D9CFE82F58
:10005000F0E083E0EE0FFF1F8A95E1F7E60FF11D58
:10006000E05AFF4F808185BB88EA91E60197F1F75E
:1000700008958FEF81BB12BAE8EAF1E63197F1F704
:1000800082BB11BA40E050E0A2EEB4E014C0FB0124
:10009000E20FF31FE05AFF4F808185BBCD0101972E
:1000A000F1F72F5F3F4F2830310589F74F5F5F4FE2
:1000B0004830510549F020E030E0BA0193E0660F86
:1000C000771F9A95E1F7E3CF0895AF92BF92CF9251
:1000D000DF92EF92FF920F931F93DF93CF930F92D4
:1000E000CDB7DEB7FF24FA9442E0E42E08EA11E629
:1000F0003AEFC32ED12CBB24B39424E0A22EF4BA41
:10010000F7BAE98211BAF8BAC8010197F1F78091FC
:10011000A20088BBF2BA8091870085BBC801019715
:10012000F1F7C8010197F1F757E041E06FEF74E094
:10013000E72FF0E093E0EE0FFF1F9A95E1F7E50F50
:10014000F11DE05AFF4F808185BBC8010197F1F78F
:10015000740F560FA72FB0E0252F30E0FD0183E08C
:10016000EE0FFF1F8A95E1F7E20FF31FE05AFF4FF2
:10017000808185BBC8010197F1F7773009F08FC006
:100180008081883321F488B3803E09F0E9C0FD0105
:1001900093E0EE0FFF1F9A95E1F7E20FF31FE05A8D
:1001A000FF4F8081893331F488B3803E19F0803766
:1001B00009F0D6C0FD0183E0EE0FFF1F8A95E1F73D
:1001C000E20FF31FE05AFF4F80818A3341F488B376
:1001D000803E29F0803719F0883309F0C1C0FD0155
:1001E00093E0EE0FFF1F9A95E1F7E20FF31FE05A3D
:1001F000FF4F80818B3341F488B38C3129F08037F5
:1002000019F0883309F0ACC0FD0183E0EE0FFF1F49
:100210008A95E1F7E20FF31FE05AFF4F80818C339C
:1002200041F488B38C3129F08E3019F0883309F00D
:1002300097C0FD0193E0EE0FFF1F9A95E1F7E20FE3
:10024000F31FE05AFF4F80818D3341F488B38C3126
:1002500029F08E3019F0873009F082C0FD0183E06B
:10026000EE0FFF1F8A95E1F7E20FF31FE05AFF4FF1
:1002700080818E3331F488B38E3019F0873009F0E5
:100280006FC0E3E0AA0FBB1FEA95E1F7A20FB31F0F
:10029000A05ABF4F8C918F3309F065C05EC07723A1
:1002A00009F062C0F901E05AFF4F8081882321F4F0
:1002B00088B3803E09F054C0F901E05AFF4F8081B5
:1002C000813031F488B3803E19F0803709F048C09E
:1002D000F901E05AFF4F8081823039F488B3803EC3
:1002E00021F0803711F08833D9F5F901E05AFF4F3A
:1002F0008081833039F488B38C3121F0803711F05C
:10030000883371F5F901E05AFF4F8081843039F468
:1003100088B38C3121F08E3011F0883309F5F90162
:10032000E05AFF4F8081853039F488B38C3121F059
:100330008E3011F08730A1F4F901E05AFF4F80812F
:10034000863029F488B38E3011F0873049F4205A72
:100350003F4FF9018081873031F488B3873019F03D
:10036000842F87DECCCE4195552319F4619551E059
:1003700004C0573011F4619556E0809912C0C6014F
:100380000197F1F780990DC089818F5F8983E98199
:10039000F0E0E056FF4F808188BB8981853008F00E
:1003A000A9828199C5CEC6010197F1F78199C0CE86
:1003B000898181508983E981F0E0E056FF4F808197
:1003C00088BB8981882309F0B3CEB982B1CEF89475
:0203D000FFCF5D
:1003D200000102030405060708090A0B0C0D0E0FA3
:1003E200101112131415161718191A1B1C1D1E1F93
:1003F200202122232425262728292A2B2C2D2E2F83
:10040200303132333435363738393A3B3C3D3E3F72
:06041200E070381C0E072B
:00000001FF
