:1000000012C02BC02AC029C028C027C026C025C0C6
:1000100024C023C022C021C020C01FC01EC01DC0DC
:100020001CC01BC01AC011241FBECFE5D4E0DEBF28
:10003000CDBF10E0A0E6B0E0E4EBF0E002C0059038
:100040000D92A036B107D9F710E0A0E6B0E001C0EC
:100050001D92A036B107E1F701C0D2CFCFE5D4E0C1
:10006000DEBFCDBF8FEF84BB91E0E92E86E0F82E96
:1000700007E018E0C9E0BEE0AFE0FBE1ECE173E2CD
:1000800064E251E346E33AE32BE39CE38DE315BAE4
:10009000E5BAF5BA05BB15BBC5BBB5BBA5BBF5BB82
:1000A000E5BB75BB65BB55BB45BB35BB25BB95BB30
:0400B00085BBEDCF50
:00000001FF
