:1000000012C024C023C022C021C020C01FC01EC0F7
:100010001DC01CC01BC01AC019C018C017C016C014
:1000200015C014C013C011241FBECFE5D4E0DEBF3D
:10003000CDBF10E0A0E6B0E0EEEEF0E002C005902B
:100040000D92A03AB107D9F714D04FC0D9CFE82FFD
:10005000F0E083E0EE0FFF1F8A95E1F7E60FF11D58
:10006000E05AFF4F808185BB88EA91E60197F1F75E
:1000700008958FEF84BB34E027E051E04FEF68EA4A
:1000800071E6E32FF0E0A3E0EE0FFF1FAA95E1F782
:10009000E20FF11DE05AFF4F808185BBCB01019734
:1000A000F1F7CB010197F1F7350F240FE32FF0E0C3
:1000B00093E0EE0FFF1F9A95E1F7E20FF11DE05A72
:1000C000FF4F808185BBCB010197F1F7373011F0ED
:1000D000332309F45195222319F4419521E0D1CF1E
:0E00E000273079F6419526E0CCCFF894FFCF7B
:1000EE00000102030405060708090A0B0C0D0E0F8A
:1000FE00101112131415161718191A1B1C1D1E1F7A
:10010E00202122232425262728292A2B2C2D2E2F69
:10011E00303132333435363738393A3B3C3D3E3F59
:00000001FF
